{
	"contract.sol": {
		"Test": {
			"abi": [
				{
					"inputs": [],
					"name": "multiply",
					"outputs": [
						{
							"internalType": "uint256",
							"name": "",
							"type": "uint256"
						}
					],
					"stateMutability": "view",
					"type": "function"
				},
				{
					"inputs": [],
					"name": "power",
					"outputs": [
						{
							"internalType": "uint256",
							"name": "",
							"type": "uint256"
						}
					],
					"stateMutability": "view",
					"type": "function"
				},
				{
					"inputs": [
						{
							"internalType": "uint256",
							"name": "_a",
							"type": "uint256"
						},
						{
							"internalType": "uint256",
							"name": "_b",
							"type": "uint256"
						}
					],
					"name": "setNumbers",
					"outputs": [],
					"stateMutability": "nonpayable",
					"type": "function"
				}
			],
			"devdoc": {
				"kind": "dev",
				"methods": {},
				"version": 1
			},
			"evm": {
				"assembly": "    /* \"contract.sol\":60:371  contract Test{... */\n  mstore(0x40, 0x80)\n  callvalue\n  dup1\n  iszero\n  tag_1\n  jumpi\n  0x00\n  dup1\n  revert\ntag_1:\n  pop\n  dataSize(sub_0)\n  dup1\n  dataOffset(sub_0)\n  0x00\n  codecopy\n  0x00\n  return\nstop\n\nsub_0: assembly {\n        /* \"contract.sol\":60:371  contract Test{... */\n      mstore(0x40, 0x80)\n      callvalue\n      dup1\n      iszero\n      tag_1\n      jumpi\n      0x00\n      dup1\n      revert\n    tag_1:\n      pop\n      jumpi(tag_2, lt(calldatasize, 0x04))\n      shr(0xe0, calldataload(0x00))\n      dup1\n      0x4a4d59fa\n      eq\n      tag_3\n      jumpi\n      dup1\n      0xa378c898\n      eq\n      tag_4\n      jumpi\n      dup1\n      0xf3593cd0\n      eq\n      tag_5\n      jumpi\n    tag_2:\n      0x00\n      dup1\n      revert\n        /* \"contract.sol\":291:364  function power() public view returns (uint){... */\n    tag_3:\n      tag_6\n      tag_7\n      jump\t// in\n    tag_6:\n      mload(0x40)\n      tag_8\n      swap2\n      swap1\n      tag_9\n      jump\t// in\n    tag_8:\n      mload(0x40)\n      dup1\n      swap2\n      sub\n      swap1\n      return\n        /* \"contract.sol\":114:200  function setNumbers(uint _a, uint _b) public{... */\n    tag_4:\n      tag_10\n      0x04\n      dup1\n      calldatasize\n      sub\n      dup2\n      add\n      swap1\n      tag_11\n      swap2\n      swap1\n      tag_12\n      jump\t// in\n    tag_11:\n      tag_13\n      jump\t// in\n    tag_10:\n      stop\n        /* \"contract.sol\":208:283  function multiply() public view returns (uint){... */\n    tag_5:\n      tag_14\n      tag_15\n      jump\t// in\n    tag_14:\n      mload(0x40)\n      tag_16\n      swap2\n      swap1\n      tag_9\n      jump\t// in\n    tag_16:\n      mload(0x40)\n      dup1\n      swap2\n      sub\n      swap1\n      return\n        /* \"contract.sol\":291:364  function power() public view returns (uint){... */\n    tag_7:\n        /* \"contract.sol\":329:333  uint */\n      0x00\n        /* \"contract.sol\":355:356  b */\n      sload(0x01)\n        /* \"contract.sol\":352:353  a */\n      sload(0x00)\n        /* \"contract.sol\":352:356  a**b */\n      tag_18\n      swap2\n      swap1\n      tag_19\n      jump\t// in\n    tag_18:\n        /* \"contract.sol\":345:356  return a**b */\n      swap1\n      pop\n        /* \"contract.sol\":291:364  function power() public view returns (uint){... */\n      swap1\n      jump\t// out\n        /* \"contract.sol\":114:200  function setNumbers(uint _a, uint _b) public{... */\n    tag_13:\n        /* \"contract.sol\":173:175  _a */\n      dup2\n        /* \"contract.sol\":169:170  a */\n      0x00\n        /* \"contract.sol\":169:175  a = _a */\n      dup2\n      swap1\n      sstore\n      pop\n        /* \"contract.sol\":190:192  _b */\n      dup1\n        /* \"contract.sol\":186:187  b */\n      0x01\n        /* \"contract.sol\":186:192  b = _b */\n      dup2\n      swap1\n      sstore\n      pop\n        /* \"contract.sol\":114:200  function setNumbers(uint _a, uint _b) public{... */\n      pop\n      pop\n      jump\t// out\n        /* \"contract.sol\":208:283  function multiply() public view returns (uint){... */\n    tag_15:\n        /* \"contract.sol\":249:253  uint */\n      0x00\n        /* \"contract.sol\":274:275  b */\n      sload(0x01)\n        /* \"contract.sol\":272:273  a */\n      sload(0x00)\n        /* \"contract.sol\":272:275  a*b */\n      tag_22\n      swap2\n      swap1\n      tag_23\n      jump\t// in\n    tag_22:\n        /* \"contract.sol\":265:275  return a*b */\n      swap1\n      pop\n        /* \"contract.sol\":208:283  function multiply() public view returns (uint){... */\n      swap1\n      jump\t// out\n        /* \"#utility.yul\":7:84   */\n    tag_24:\n        /* \"#utility.yul\":44:51   */\n      0x00\n        /* \"#utility.yul\":73:78   */\n      dup2\n        /* \"#utility.yul\":62:78   */\n      swap1\n      pop\n        /* \"#utility.yul\":7:84   */\n      swap2\n      swap1\n      pop\n      jump\t// out\n        /* \"#utility.yul\":90:208   */\n    tag_25:\n        /* \"#utility.yul\":177:201   */\n      tag_38\n        /* \"#utility.yul\":195:200   */\n      dup2\n        /* \"#utility.yul\":177:201   */\n      tag_24\n      jump\t// in\n    tag_38:\n        /* \"#utility.yul\":172:175   */\n      dup3\n        /* \"#utility.yul\":165:202   */\n      mstore\n        /* \"#utility.yul\":90:208   */\n      pop\n      pop\n      jump\t// out\n        /* \"#utility.yul\":214:436   */\n    tag_9:\n        /* \"#utility.yul\":307:311   */\n      0x00\n        /* \"#utility.yul\":345:347   */\n      0x20\n        /* \"#utility.yul\":334:343   */\n      dup3\n        /* \"#utility.yul\":330:348   */\n      add\n        /* \"#utility.yul\":322:348   */\n      swap1\n      pop\n        /* \"#utility.yul\":358:429   */\n      tag_40\n        /* \"#utility.yul\":426:427   */\n      0x00\n        /* \"#utility.yul\":415:424   */\n      dup4\n        /* \"#utility.yul\":411:428   */\n      add\n        /* \"#utility.yul\":402:408   */\n      dup5\n        /* \"#utility.yul\":358:429   */\n      tag_25\n      jump\t// in\n    tag_40:\n        /* \"#utility.yul\":214:436   */\n      swap3\n      swap2\n      pop\n      pop\n      jump\t// out\n        /* \"#utility.yul\":523:640   */\n    tag_27:\n        /* \"#utility.yul\":632:633   */\n      0x00\n        /* \"#utility.yul\":629:630   */\n      dup1\n        /* \"#utility.yul\":622:634   */\n      revert\n        /* \"#utility.yul\":769:891   */\n    tag_29:\n        /* \"#utility.yul\":842:866   */\n      tag_45\n        /* \"#utility.yul\":860:865   */\n      dup2\n        /* \"#utility.yul\":842:866   */\n      tag_24\n      jump\t// in\n    tag_45:\n        /* \"#utility.yul\":835:840   */\n      dup2\n        /* \"#utility.yul\":832:867   */\n      eq\n        /* \"#utility.yul\":822:885   */\n      tag_46\n      jumpi\n        /* \"#utility.yul\":881:882   */\n      0x00\n        /* \"#utility.yul\":878:879   */\n      dup1\n        /* \"#utility.yul\":871:883   */\n      revert\n        /* \"#utility.yul\":822:885   */\n    tag_46:\n        /* \"#utility.yul\":769:891   */\n      pop\n      jump\t// out\n        /* \"#utility.yul\":897:1036   */\n    tag_30:\n        /* \"#utility.yul\":943:948   */\n      0x00\n        /* \"#utility.yul\":981:987   */\n      dup2\n        /* \"#utility.yul\":968:988   */\n      calldataload\n        /* \"#utility.yul\":959:988   */\n      swap1\n      pop\n        /* \"#utility.yul\":997:1030   */\n      tag_48\n        /* \"#utility.yul\":1024:1029   */\n      dup2\n        /* \"#utility.yul\":997:1030   */\n      tag_29\n      jump\t// in\n    tag_48:\n        /* \"#utility.yul\":897:1036   */\n      swap3\n      swap2\n      pop\n      pop\n      jump\t// out\n        /* \"#utility.yul\":1042:1516   */\n    tag_12:\n        /* \"#utility.yul\":1110:1116   */\n      0x00\n        /* \"#utility.yul\":1118:1124   */\n      dup1\n        /* \"#utility.yul\":1167:1169   */\n      0x40\n        /* \"#utility.yul\":1155:1164   */\n      dup4\n        /* \"#utility.yul\":1146:1153   */\n      dup6\n        /* \"#utility.yul\":1142:1165   */\n      sub\n        /* \"#utility.yul\":1138:1170   */\n      slt\n        /* \"#utility.yul\":1135:1254   */\n      iszero\n      tag_50\n      jumpi\n        /* \"#utility.yul\":1173:1252   */\n      tag_51\n      tag_27\n      jump\t// in\n    tag_51:\n        /* \"#utility.yul\":1135:1254   */\n    tag_50:\n        /* \"#utility.yul\":1293:1294   */\n      0x00\n        /* \"#utility.yul\":1318:1371   */\n      tag_52\n        /* \"#utility.yul\":1363:1370   */\n      dup6\n        /* \"#utility.yul\":1354:1360   */\n      dup3\n        /* \"#utility.yul\":1343:1352   */\n      dup7\n        /* \"#utility.yul\":1339:1361   */\n      add\n        /* \"#utility.yul\":1318:1371   */\n      tag_30\n      jump\t// in\n    tag_52:\n        /* \"#utility.yul\":1308:1371   */\n      swap3\n      pop\n        /* \"#utility.yul\":1264:1381   */\n      pop\n        /* \"#utility.yul\":1420:1422   */\n      0x20\n        /* \"#utility.yul\":1446:1499   */\n      tag_53\n        /* \"#utility.yul\":1491:1498   */\n      dup6\n        /* \"#utility.yul\":1482:1488   */\n      dup3\n        /* \"#utility.yul\":1471:1480   */\n      dup7\n        /* \"#utility.yul\":1467:1489   */\n      add\n        /* \"#utility.yul\":1446:1499   */\n      tag_30\n      jump\t// in\n    tag_53:\n        /* \"#utility.yul\":1436:1499   */\n      swap2\n      pop\n        /* \"#utility.yul\":1391:1509   */\n      pop\n        /* \"#utility.yul\":1042:1516   */\n      swap3\n      pop\n      swap3\n      swap1\n      pop\n      jump\t// out\n        /* \"#utility.yul\":1522:1702   */\n    tag_31:\n        /* \"#utility.yul\":1570:1647   */\n      0x4e487b7100000000000000000000000000000000000000000000000000000000\n        /* \"#utility.yul\":1567:1568   */\n      0x00\n        /* \"#utility.yul\":1560:1648   */\n      mstore\n        /* \"#utility.yul\":1667:1671   */\n      0x11\n        /* \"#utility.yul\":1664:1665   */\n      0x04\n        /* \"#utility.yul\":1657:1672   */\n      mstore\n        /* \"#utility.yul\":1691:1695   */\n      0x24\n        /* \"#utility.yul\":1688:1689   */\n      0x00\n        /* \"#utility.yul\":1681:1696   */\n      revert\n        /* \"#utility.yul\":1708:1810   */\n    tag_32:\n        /* \"#utility.yul\":1750:1758   */\n      0x00\n        /* \"#utility.yul\":1797:1802   */\n      dup2\n        /* \"#utility.yul\":1794:1795   */\n      0x01\n        /* \"#utility.yul\":1790:1803   */\n      shr\n        /* \"#utility.yul\":1769:1803   */\n      swap1\n      pop\n        /* \"#utility.yul\":1708:1810   */\n      swap2\n      swap1\n      pop\n      jump\t// out\n        /* \"#utility.yul\":1816:2664   */\n    tag_33:\n        /* \"#utility.yul\":1877:1882   */\n      0x00\n        /* \"#utility.yul\":1884:1888   */\n      dup1\n        /* \"#utility.yul\":1908:1914   */\n      dup3\n        /* \"#utility.yul\":1899:1914   */\n      swap2\n      pop\n        /* \"#utility.yul\":1932:1937   */\n      dup4\n        /* \"#utility.yul\":1923:1937   */\n      swap1\n      pop\n        /* \"#utility.yul\":1946:2658   */\n    tag_57:\n        /* \"#utility.yul\":1967:1968   */\n      0x01\n        /* \"#utility.yul\":1957:1965   */\n      dup6\n        /* \"#utility.yul\":1954:1969   */\n      gt\n        /* \"#utility.yul\":1946:2658   */\n      iszero\n      tag_59\n      jumpi\n        /* \"#utility.yul\":2062:2066   */\n      dup1\n        /* \"#utility.yul\":2057:2060   */\n      dup7\n        /* \"#utility.yul\":2053:2067   */\n      div\n        /* \"#utility.yul\":2047:2051   */\n      dup2\n        /* \"#utility.yul\":2044:2068   */\n      gt\n        /* \"#utility.yul\":2041:2091   */\n      iszero\n      tag_60\n      jumpi\n        /* \"#utility.yul\":2071:2089   */\n      tag_61\n      tag_31\n      jump\t// in\n    tag_61:\n        /* \"#utility.yul\":2041:2091   */\n    tag_60:\n        /* \"#utility.yul\":2121:2122   */\n      0x01\n        /* \"#utility.yul\":2111:2119   */\n      dup6\n        /* \"#utility.yul\":2107:2123   */\n      and\n        /* \"#utility.yul\":2104:2555   */\n      iszero\n      tag_62\n      jumpi\n        /* \"#utility.yul\":2536:2540   */\n      dup1\n        /* \"#utility.yul\":2529:2534   */\n      dup3\n        /* \"#utility.yul\":2525:2541   */\n      mul\n        /* \"#utility.yul\":2516:2541   */\n      swap2\n      pop\n        /* \"#utility.yul\":2104:2555   */\n    tag_62:\n        /* \"#utility.yul\":2586:2590   */\n      dup1\n        /* \"#utility.yul\":2580:2584   */\n      dup2\n        /* \"#utility.yul\":2576:2591   */\n      mul\n        /* \"#utility.yul\":2568:2591   */\n      swap1\n      pop\n        /* \"#utility.yul\":2616:2648   */\n      tag_63\n        /* \"#utility.yul\":2639:2647   */\n      dup6\n        /* \"#utility.yul\":2616:2648   */\n      tag_32\n      jump\t// in\n    tag_63:\n        /* \"#utility.yul\":2604:2648   */\n      swap5\n      pop\n        /* \"#utility.yul\":1946:2658   */\n      jump(tag_57)\n    tag_59:\n        /* \"#utility.yul\":1816:2664   */\n      swap5\n      pop\n      swap5\n      swap3\n      pop\n      pop\n      pop\n      jump\t// out\n        /* \"#utility.yul\":2670:3743   */\n    tag_34:\n        /* \"#utility.yul\":2724:2729   */\n      0x00\n        /* \"#utility.yul\":2915:2923   */\n      dup3\n        /* \"#utility.yul\":2905:2945   */\n      tag_65\n      jumpi\n        /* \"#utility.yul\":2936:2937   */\n      0x01\n        /* \"#utility.yul\":2927:2937   */\n      swap1\n      pop\n        /* \"#utility.yul\":2938:2943   */\n      jump(tag_64)\n        /* \"#utility.yul\":2905:2945   */\n    tag_65:\n        /* \"#utility.yul\":2964:2968   */\n      dup2\n        /* \"#utility.yul\":2954:2990   */\n      tag_66\n      jumpi\n        /* \"#utility.yul\":2981:2982   */\n      0x00\n        /* \"#utility.yul\":2972:2982   */\n      swap1\n      pop\n        /* \"#utility.yul\":2983:2988   */\n      jump(tag_64)\n        /* \"#utility.yul\":2954:2990   */\n    tag_66:\n        /* \"#utility.yul\":3050:3054   */\n      dup2\n        /* \"#utility.yul\":3098:3099   */\n      0x01\n        /* \"#utility.yul\":3093:3120   */\n      dup2\n      eq\n      tag_68\n      jumpi\n        /* \"#utility.yul\":3134:3135   */\n      0x02\n        /* \"#utility.yul\":3129:3320   */\n      dup2\n      eq\n      tag_69\n      jumpi\n        /* \"#utility.yul\":3043:3320   */\n      jump(tag_67)\n        /* \"#utility.yul\":3093:3120   */\n    tag_68:\n        /* \"#utility.yul\":3111:3112   */\n      0x01\n        /* \"#utility.yul\":3102:3112   */\n      swap2\n      pop\n        /* \"#utility.yul\":3113:3118   */\n      pop\n      jump(tag_64)\n        /* \"#utility.yul\":3129:3320   */\n    tag_69:\n        /* \"#utility.yul\":3174:3177   */\n      0xff\n        /* \"#utility.yul\":3164:3172   */\n      dup5\n        /* \"#utility.yul\":3161:3178   */\n      gt\n        /* \"#utility.yul\":3158:3201   */\n      iszero\n      tag_70\n      jumpi\n        /* \"#utility.yul\":3181:3199   */\n      tag_71\n      tag_31\n      jump\t// in\n    tag_71:\n        /* \"#utility.yul\":3158:3201   */\n    tag_70:\n        /* \"#utility.yul\":3230:3238   */\n      dup4\n        /* \"#utility.yul\":3227:3228   */\n      0x02\n        /* \"#utility.yul\":3223:3239   */\n      exp\n        /* \"#utility.yul\":3214:3239   */\n      swap2\n      pop\n        /* \"#utility.yul\":3265:3268   */\n      dup5\n        /* \"#utility.yul\":3258:3263   */\n      dup3\n        /* \"#utility.yul\":3255:3269   */\n      gt\n        /* \"#utility.yul\":3252:3292   */\n      iszero\n      tag_72\n      jumpi\n        /* \"#utility.yul\":3272:3290   */\n      tag_73\n      tag_31\n      jump\t// in\n    tag_73:\n        /* \"#utility.yul\":3252:3292   */\n    tag_72:\n        /* \"#utility.yul\":3305:3310   */\n      pop\n      jump(tag_64)\n        /* \"#utility.yul\":3043:3320   */\n    tag_67:\n      pop\n        /* \"#utility.yul\":3429:3431   */\n      0x20\n        /* \"#utility.yul\":3419:3427   */\n      dup4\n        /* \"#utility.yul\":3416:3432   */\n      lt\n        /* \"#utility.yul\":3410:3413   */\n      0x0133\n        /* \"#utility.yul\":3404:3408   */\n      dup4\n        /* \"#utility.yul\":3401:3414   */\n      lt\n        /* \"#utility.yul\":3397:3433   */\n      and\n        /* \"#utility.yul\":3379:3381   */\n      0x4e\n        /* \"#utility.yul\":3369:3377   */\n      dup5\n        /* \"#utility.yul\":3366:3382   */\n      lt\n        /* \"#utility.yul\":3361:3363   */\n      0x0b\n        /* \"#utility.yul\":3355:3359   */\n      dup5\n        /* \"#utility.yul\":3352:3364   */\n      lt\n        /* \"#utility.yul\":3348:3383   */\n      and\n        /* \"#utility.yul\":3332:3443   */\n      or\n        /* \"#utility.yul\":3329:3575   */\n      iszero\n      tag_74\n      jumpi\n        /* \"#utility.yul\":3485:3493   */\n      dup3\n        /* \"#utility.yul\":3479:3483   */\n      dup3\n        /* \"#utility.yul\":3475:3494   */\n      exp\n        /* \"#utility.yul\":3466:3494   */\n      swap1\n      pop\n        /* \"#utility.yul\":3520:3523   */\n      dup4\n        /* \"#utility.yul\":3513:3518   */\n      dup2\n        /* \"#utility.yul\":3510:3524   */\n      gt\n        /* \"#utility.yul\":3507:3547   */\n      iszero\n      tag_75\n      jumpi\n        /* \"#utility.yul\":3527:3545   */\n      tag_76\n      tag_31\n      jump\t// in\n    tag_76:\n        /* \"#utility.yul\":3507:3547   */\n    tag_75:\n        /* \"#utility.yul\":3560:3565   */\n      jump(tag_64)\n        /* \"#utility.yul\":3329:3575   */\n    tag_74:\n        /* \"#utility.yul\":3600:3642   */\n      tag_77\n        /* \"#utility.yul\":3638:3641   */\n      dup5\n        /* \"#utility.yul\":3628:3636   */\n      dup5\n        /* \"#utility.yul\":3622:3626   */\n      dup5\n        /* \"#utility.yul\":3619:3620   */\n      0x01\n        /* \"#utility.yul\":3600:3642   */\n      tag_33\n      jump\t// in\n    tag_77:\n        /* \"#utility.yul\":3585:3642   */\n      swap3\n      pop\n      swap1\n      pop\n        /* \"#utility.yul\":3674:3678   */\n      dup2\n        /* \"#utility.yul\":3669:3672   */\n      dup5\n        /* \"#utility.yul\":3665:3679   */\n      div\n        /* \"#utility.yul\":3658:3663   */\n      dup2\n        /* \"#utility.yul\":3655:3680   */\n      gt\n        /* \"#utility.yul\":3652:3703   */\n      iszero\n      tag_78\n      jumpi\n        /* \"#utility.yul\":3683:3701   */\n      tag_79\n      tag_31\n      jump\t// in\n    tag_79:\n        /* \"#utility.yul\":3652:3703   */\n    tag_78:\n        /* \"#utility.yul\":3732:3736   */\n      dup2\n        /* \"#utility.yul\":3725:3730   */\n      dup2\n        /* \"#utility.yul\":3721:3737   */\n      mul\n        /* \"#utility.yul\":3712:3737   */\n      swap1\n      pop\n        /* \"#utility.yul\":2670:3743   */\n    tag_64:\n      swap4\n      swap3\n      pop\n      pop\n      pop\n      jump\t// out\n        /* \"#utility.yul\":3749:4034   */\n    tag_19:\n        /* \"#utility.yul\":3809:3814   */\n      0x00\n        /* \"#utility.yul\":3833:3856   */\n      tag_81\n        /* \"#utility.yul\":3851:3855   */\n      dup3\n        /* \"#utility.yul\":3833:3856   */\n      tag_24\n      jump\t// in\n    tag_81:\n        /* \"#utility.yul\":3825:3856   */\n      swap2\n      pop\n        /* \"#utility.yul\":3877:3904   */\n      tag_82\n        /* \"#utility.yul\":3895:3903   */\n      dup4\n        /* \"#utility.yul\":3877:3904   */\n      tag_24\n      jump\t// in\n    tag_82:\n        /* \"#utility.yul\":3865:3904   */\n      swap3\n      pop\n        /* \"#utility.yul\":3923:4027   */\n      tag_83\n        /* \"#utility.yul\":3960:4026   */\n      0xffffffffffffffffffffffffffffffffffffffffffffffffffffffffffffffff\n        /* \"#utility.yul\":3950:3958   */\n      dup5\n        /* \"#utility.yul\":3944:3948   */\n      dup5\n        /* \"#utility.yul\":3923:4027   */\n      tag_34\n      jump\t// in\n    tag_83:\n        /* \"#utility.yul\":3914:4027   */\n      swap1\n      pop\n        /* \"#utility.yul\":3749:4034   */\n      swap3\n      swap2\n      pop\n      pop\n      jump\t// out\n        /* \"#utility.yul\":4040:4450   */\n    tag_23:\n        /* \"#utility.yul\":4080:4087   */\n      0x00\n        /* \"#utility.yul\":4103:4123   */\n      tag_85\n        /* \"#utility.yul\":4121:4122   */\n      dup3\n        /* \"#utility.yul\":4103:4123   */\n      tag_24\n      jump\t// in\n    tag_85:\n        /* \"#utility.yul\":4098:4123   */\n      swap2\n      pop\n        /* \"#utility.yul\":4137:4157   */\n      tag_86\n        /* \"#utility.yul\":4155:4156   */\n      dup4\n        /* \"#utility.yul\":4137:4157   */\n      tag_24\n      jump\t// in\n    tag_86:\n        /* \"#utility.yul\":4132:4157   */\n      swap3\n      pop\n        /* \"#utility.yul\":4192:4193   */\n      dup3\n        /* \"#utility.yul\":4189:4190   */\n      dup3\n        /* \"#utility.yul\":4185:4194   */\n      mul\n        /* \"#utility.yul\":4214:4244   */\n      tag_87\n        /* \"#utility.yul\":4232:4243   */\n      dup2\n        /* \"#utility.yul\":4214:4244   */\n      tag_24\n      jump\t// in\n    tag_87:\n        /* \"#utility.yul\":4203:4244   */\n      swap2\n      pop\n        /* \"#utility.yul\":4393:4394   */\n      dup3\n        /* \"#utility.yul\":4384:4391   */\n      dup3\n        /* \"#utility.yul\":4380:4395   */\n      div\n        /* \"#utility.yul\":4377:4378   */\n      dup5\n        /* \"#utility.yul\":4374:4396   */\n      eq\n        /* \"#utility.yul\":4354:4355   */\n      dup4\n        /* \"#utility.yul\":4347:4356   */\n      iszero\n        /* \"#utility.yul\":4327:4410   */\n      or\n        /* \"#utility.yul\":4304:4443   */\n      tag_88\n      jumpi\n        /* \"#utility.yul\":4423:4441   */\n      tag_89\n      tag_31\n      jump\t// in\n    tag_89:\n        /* \"#utility.yul\":4304:4443   */\n    tag_88:\n        /* \"#utility.yul\":4088:4450   */\n      pop\n        /* \"#utility.yul\":4040:4450   */\n      swap3\n      swap2\n      pop\n      pop\n      jump\t// out\n\n    auxdata: 0xa2646970667358221220aa68a8daf15ec4c2f00af3a233239c370868f8bde3d076a9baa0e9dd97cbcfbc64736f6c63430008120033\n}\n",
				"bytecode": {
					"linkReferences": {},
					"object": "608060405234801561001057600080fd5b506103a8806100206000396000f3fe608060405234801561001057600080fd5b50600436106100415760003560e01c80634a4d59fa14610046578063a378c89814610064578063f3593cd014610080575b600080fd5b61004e61009e565b60405161005b91906100f7565b60405180910390f35b61007e60048036038101906100799190610143565b6100b5565b005b6100886100c7565b60405161009591906100f7565b60405180910390f35b60006001546000546100b091906102e5565b905090565b81600081905550806001819055505050565b60006001546000546100d99190610330565b905090565b6000819050919050565b6100f1816100de565b82525050565b600060208201905061010c60008301846100e8565b92915050565b600080fd5b610120816100de565b811461012b57600080fd5b50565b60008135905061013d81610117565b92915050565b6000806040838503121561015a57610159610112565b5b60006101688582860161012e565b92505060206101798582860161012e565b9150509250929050565b7f4e487b7100000000000000000000000000000000000000000000000000000000600052601160045260246000fd5b60008160011c9050919050565b6000808291508390505b6001851115610209578086048111156101e5576101e4610183565b5b60018516156101f45780820291505b8081029050610202856101b2565b94506101c9565b94509492505050565b60008261022257600190506102de565b8161023057600090506102de565b816001811461024657600281146102505761027f565b60019150506102de565b60ff84111561026257610261610183565b5b8360020a91508482111561027957610278610183565b5b506102de565b5060208310610133831016604e8410600b84101617156102b45782820a9050838111156102af576102ae610183565b5b6102de565b6102c184848460016101bf565b925090508184048111156102d8576102d7610183565b5b81810290505b9392505050565b60006102f0826100de565b91506102fb836100de565b92506103287fffffffffffffffffffffffffffffffffffffffffffffffffffffffffffffffff8484610212565b905092915050565b600061033b826100de565b9150610346836100de565b9250828202610354816100de565b9150828204841483151761036b5761036a610183565b5b509291505056fea2646970667358221220aa68a8daf15ec4c2f00af3a233239c370868f8bde3d076a9baa0e9dd97cbcfbc64736f6c63430008120033",
					"opcodes": "PUSH1 0x80 PUSH1 0x40 MSTORE CALLVALUE DUP1 ISZERO PUSH2 0x10 JUMPI PUSH1 0x0 DUP1 REVERT JUMPDEST POP PUSH2 0x3A8 DUP1 PUSH2 0x20 PUSH1 0x0 CODECOPY PUSH1 0x0 RETURN INVALID PUSH1 0x80 PUSH1 0x40 MSTORE CALLVALUE DUP1 ISZERO PUSH2 0x10 JUMPI PUSH1 0x0 DUP1 REVERT JUMPDEST POP PUSH1 0x4 CALLDATASIZE LT PUSH2 0x41 JUMPI PUSH1 0x0 CALLDATALOAD PUSH1 0xE0 SHR DUP1 PUSH4 0x4A4D59FA EQ PUSH2 0x46 JUMPI DUP1 PUSH4 0xA378C898 EQ PUSH2 0x64 JUMPI DUP1 PUSH4 0xF3593CD0 EQ PUSH2 0x80 JUMPI JUMPDEST PUSH1 0x0 DUP1 REVERT JUMPDEST PUSH2 0x4E PUSH2 0x9E JUMP JUMPDEST PUSH1 0x40 MLOAD PUSH2 0x5B SWAP2 SWAP1 PUSH2 0xF7 JUMP JUMPDEST PUSH1 0x40 MLOAD DUP1 SWAP2 SUB SWAP1 RETURN JUMPDEST PUSH2 0x7E PUSH1 0x4 DUP1 CALLDATASIZE SUB DUP2 ADD SWAP1 PUSH2 0x79 SWAP2 SWAP1 PUSH2 0x143 JUMP JUMPDEST PUSH2 0xB5 JUMP JUMPDEST STOP JUMPDEST PUSH2 0x88 PUSH2 0xC7 JUMP JUMPDEST PUSH1 0x40 MLOAD PUSH2 0x95 SWAP2 SWAP1 PUSH2 0xF7 JUMP JUMPDEST PUSH1 0x40 MLOAD DUP1 SWAP2 SUB SWAP1 RETURN JUMPDEST PUSH1 0x0 PUSH1 0x1 SLOAD PUSH1 0x0 SLOAD PUSH2 0xB0 SWAP2 SWAP1 PUSH2 0x2E5 JUMP JUMPDEST SWAP1 POP SWAP1 JUMP JUMPDEST DUP2 PUSH1 0x0 DUP2 SWAP1 SSTORE POP DUP1 PUSH1 0x1 DUP2 SWAP1 SSTORE POP POP POP JUMP JUMPDEST PUSH1 0x0 PUSH1 0x1 SLOAD PUSH1 0x0 SLOAD PUSH2 0xD9 SWAP2 SWAP1 PUSH2 0x330 JUMP JUMPDEST SWAP1 POP SWAP1 JUMP JUMPDEST PUSH1 0x0 DUP2 SWAP1 POP SWAP2 SWAP1 POP JUMP JUMPDEST PUSH2 0xF1 DUP2 PUSH2 0xDE JUMP JUMPDEST DUP3 MSTORE POP POP JUMP JUMPDEST PUSH1 0x0 PUSH1 0x20 DUP3 ADD SWAP1 POP PUSH2 0x10C PUSH1 0x0 DUP4 ADD DUP5 PUSH2 0xE8 JUMP JUMPDEST SWAP3 SWAP2 POP POP JUMP JUMPDEST PUSH1 0x0 DUP1 REVERT JUMPDEST PUSH2 0x120 DUP2 PUSH2 0xDE JUMP JUMPDEST DUP2 EQ PUSH2 0x12B JUMPI PUSH1 0x0 DUP1 REVERT JUMPDEST POP JUMP JUMPDEST PUSH1 0x0 DUP2 CALLDATALOAD SWAP1 POP PUSH2 0x13D DUP2 PUSH2 0x117 JUMP JUMPDEST SWAP3 SWAP2 POP POP JUMP JUMPDEST PUSH1 0x0 DUP1 PUSH1 0x40 DUP4 DUP6 SUB SLT ISZERO PUSH2 0x15A JUMPI PUSH2 0x159 PUSH2 0x112 JUMP JUMPDEST JUMPDEST PUSH1 0x0 PUSH2 0x168 DUP6 DUP3 DUP7 ADD PUSH2 0x12E JUMP JUMPDEST SWAP3 POP POP PUSH1 0x20 PUSH2 0x179 DUP6 DUP3 DUP7 ADD PUSH2 0x12E JUMP JUMPDEST SWAP2 POP POP SWAP3 POP SWAP3 SWAP1 POP JUMP JUMPDEST PUSH32 0x4E487B7100000000000000000000000000000000000000000000000000000000 PUSH1 0x0 MSTORE PUSH1 0x11 PUSH1 0x4 MSTORE PUSH1 0x24 PUSH1 0x0 REVERT JUMPDEST PUSH1 0x0 DUP2 PUSH1 0x1 SHR SWAP1 POP SWAP2 SWAP1 POP JUMP JUMPDEST PUSH1 0x0 DUP1 DUP3 SWAP2 POP DUP4 SWAP1 POP JUMPDEST PUSH1 0x1 DUP6 GT ISZERO PUSH2 0x209 JUMPI DUP1 DUP7 DIV DUP2 GT ISZERO PUSH2 0x1E5 JUMPI PUSH2 0x1E4 PUSH2 0x183 JUMP JUMPDEST JUMPDEST PUSH1 0x1 DUP6 AND ISZERO PUSH2 0x1F4 JUMPI DUP1 DUP3 MUL SWAP2 POP JUMPDEST DUP1 DUP2 MUL SWAP1 POP PUSH2 0x202 DUP6 PUSH2 0x1B2 JUMP JUMPDEST SWAP5 POP PUSH2 0x1C9 JUMP JUMPDEST SWAP5 POP SWAP5 SWAP3 POP POP POP JUMP JUMPDEST PUSH1 0x0 DUP3 PUSH2 0x222 JUMPI PUSH1 0x1 SWAP1 POP PUSH2 0x2DE JUMP JUMPDEST DUP2 PUSH2 0x230 JUMPI PUSH1 0x0 SWAP1 POP PUSH2 0x2DE JUMP JUMPDEST DUP2 PUSH1 0x1 DUP2 EQ PUSH2 0x246 JUMPI PUSH1 0x2 DUP2 EQ PUSH2 0x250 JUMPI PUSH2 0x27F JUMP JUMPDEST PUSH1 0x1 SWAP2 POP POP PUSH2 0x2DE JUMP JUMPDEST PUSH1 0xFF DUP5 GT ISZERO PUSH2 0x262 JUMPI PUSH2 0x261 PUSH2 0x183 JUMP JUMPDEST JUMPDEST DUP4 PUSH1 0x2 EXP SWAP2 POP DUP5 DUP3 GT ISZERO PUSH2 0x279 JUMPI PUSH2 0x278 PUSH2 0x183 JUMP JUMPDEST JUMPDEST POP PUSH2 0x2DE JUMP JUMPDEST POP PUSH1 0x20 DUP4 LT PUSH2 0x133 DUP4 LT AND PUSH1 0x4E DUP5 LT PUSH1 0xB DUP5 LT AND OR ISZERO PUSH2 0x2B4 JUMPI DUP3 DUP3 EXP SWAP1 POP DUP4 DUP2 GT ISZERO PUSH2 0x2AF JUMPI PUSH2 0x2AE PUSH2 0x183 JUMP JUMPDEST JUMPDEST PUSH2 0x2DE JUMP JUMPDEST PUSH2 0x2C1 DUP5 DUP5 DUP5 PUSH1 0x1 PUSH2 0x1BF JUMP JUMPDEST SWAP3 POP SWAP1 POP DUP2 DUP5 DIV DUP2 GT ISZERO PUSH2 0x2D8 JUMPI PUSH2 0x2D7 PUSH2 0x183 JUMP JUMPDEST JUMPDEST DUP2 DUP2 MUL SWAP1 POP JUMPDEST SWAP4 SWAP3 POP POP POP JUMP JUMPDEST PUSH1 0x0 PUSH2 0x2F0 DUP3 PUSH2 0xDE JUMP JUMPDEST SWAP2 POP PUSH2 0x2FB DUP4 PUSH2 0xDE JUMP JUMPDEST SWAP3 POP PUSH2 0x328 PUSH32 0xFFFFFFFFFFFFFFFFFFFFFFFFFFFFFFFFFFFFFFFFFFFFFFFFFFFFFFFFFFFFFFFF DUP5 DUP5 PUSH2 0x212 JUMP JUMPDEST SWAP1 POP SWAP3 SWAP2 POP POP JUMP JUMPDEST PUSH1 0x0 PUSH2 0x33B DUP3 PUSH2 0xDE JUMP JUMPDEST SWAP2 POP PUSH2 0x346 DUP4 PUSH2 0xDE JUMP JUMPDEST SWAP3 POP DUP3 DUP3 MUL PUSH2 0x354 DUP2 PUSH2 0xDE JUMP JUMPDEST SWAP2 POP DUP3 DUP3 DIV DUP5 EQ DUP4 ISZERO OR PUSH2 0x36B JUMPI PUSH2 0x36A PUSH2 0x183 JUMP JUMPDEST JUMPDEST POP SWAP3 SWAP2 POP POP JUMP INVALID LOG2 PUSH5 0x6970667358 0x22 SLT KECCAK256 0xAA PUSH9 0xA8DAF15EC4C2F00AF3 LOG2 CALLER 0x23 SWAP13 CALLDATACOPY ADDMOD PUSH9 0xF8BDE3D076A9BAA0E9 0xDD SWAP8 0xCB 0xCF 0xBC PUSH5 0x736F6C6343 STOP ADDMOD SLT STOP CALLER "
				},
				"gasEstimates": {
					"creation": {
						"codeDepositCost": "187200",
						"executionCost": "232",
						"totalCost": "187432"
					},
					"external": {
						"multiply()": "infinite",
						"power()": "infinite",
						"setNumbers(uint256,uint256)": "infinite"
					}
				},
				"methodIdentifiers": {
					"multiply()": "f3593cd0",
					"power()": "4a4d59fa",
					"setNumbers(uint256,uint256)": "a378c898"
				}
			},
			"storageLayout": {
				"storage": [
					{
						"astId": 3,
						"contract": "contract.sol:Test",
						"label": "a",
						"offset": 0,
						"slot": "0",
						"type": "t_uint256"
					},
					{
						"astId": 5,
						"contract": "contract.sol:Test",
						"label": "b",
						"offset": 0,
						"slot": "1",
						"type": "t_uint256"
					}
				],
				"types": {
					"t_uint256": {
						"encoding": "inplace",
						"label": "uint256",
						"numberOfBytes": "32"
					}
				}
			},
			"userdoc": {
				"kind": "user",
				"methods": {},
				"version": 1
			}
		}
	}
}